:1000000019C033C032C031C086C42FC02EC02DC02D
:100010002CC0BFC42AC029C028C027C03FC425C0E7
:10002000F3C323C04FC021C020C01FC01EC01DC0CD
:100030001CC01BC011241FBECFEFD2E0DEBFCDBF5E
:1000400011E0A0E0B1E0E4E7FFE002C005900D920E
:10005000AA31B107D9F721E0AAE1B1E001C01D92B0
:10006000A538B207E1F784D283C7CACFCF93C82F90
:100070008A3011F48DE0FADF8091C00085FFFCCF5B
:100080008091C00080648093C000C093C600A89592
:100090008091C00086FFFCCF80E090E0CF91089572
:1000A0009091C00095FFFCCF9091C0009064909318
:1000B000C0008093C6008091C00086FFFCCF80E026
:1000C00090E008951F920F920FB60F9211242F9374
:1000D0003F938F939F93EF93FF938091C0009091F4
:1000E000C6008C7101F580915801282F30E0F9018C
:1000F000E65CFE4F9083833031F49093220184E0DC
:100100008093580110C0F901E25FFE4F20819213E5
:1001100008C08F5F80935801863028F081E080937B
:100120001F0110925801FF91EF919F918F913F9184
:100130002F910F900FBE0F901F90189582958F7082
:100140008A3010F4805D0895895C08958F708A303C
:1001500010F4805D0895895C0895AF92BF92CF92AC
:10016000DF92EF92FF920F931F93CF93DF9307E4F9
:1001700011E0F801F0808F2DE1DFA82EC1E6D1E07B
:1001800088838F2DE3DFB82E8983F801F1808F2DCE
:10019000D5DFC82E8A838F2DD9DFD82E8B83F80127
:1001A000F2808F2DCBDFE82E8C838F2DCFDFF82EC2
:1001B0008D83F8010381802FC1DF182F8E83802F5C
:1001C000C5DF8F83EEE4F1E0A082B182C282D382E8
:1001D000E482F58216838783DF91CF911F910F917F
:1001E000FF90EF90DF90CF90BF90AF900895289848
:1001F000880F8E778EBD0DB407FEFDCF6EBD0DB49A
:1002000007FEFDCF289A08952898880F8E7780687A
:100210008EBD0DB407FEFDCF1EBC0DB407FEFDCF95
:100220008EB5289A0895CF93DF93D82FC62FECDF91
:10023000682F6C2B8D2FDF91CF91D9CF6FE081E0AC
:10024000D6DF6DE88AE2D3DF6EE38BE2D0DF6EE1CA
:100250008DE2CDDF60E08CE2CADF60E485E1C7DFDC
:100260006DE381E1C4DF84E1CFDF837019F463E0E3
:1002700084E1D9DF8FE99FE00197F1F700C000002A
:100280000895CF93DF93D82FC62FBEDFC0956C2F74
:1002900068238D2FDF91CF91AACF6F927F928F929B
:1002A0009F92AF92BF92DF92EF92FF920F931F93B4
:1002B000CF93DF93D82E4B01A42EE9018CE0D81602
:1002C00031F0EEE0DE1641F0E12CF12C09C0F0E354
:1002D000EF2EA7E7FA2E04C070E1E72EE2E1FE2E32
:1002E0006F2D606882E083DF60E884E0CADF60E849
:1002F0008AE099DF60E081E07ADF3401B12CC3014C
:10030000881999098A159B0530F4F30161913F0121
:1003100089E06DDFF4CF6D2D81E069DFFCE0DF1255
:1003200003C060E88DE07FDF60EDA62E67E0B62EAB
:100330008E2D8160E82E84E067DF982EE1E0AE1A12
:10034000B10819F08E2D8921B1F360E88DE099DFB5
:10035000AB2819F452E0E52E40C086E055DF8B71E2
:10036000C9F7A8958F2D8170E82EE920FCE0DF12F7
:1003700034C08AE049DFF82E8CE046DF87702F2DED
:1003800030E051F02150310943E0220F331F4A95EC
:10039000E1F7280F311D05C093E0220F331F9A9516
:1003A000E1F7F80131832083FF2031F0F0E1FF1500
:1003B00028F480E1F82E02C0FF24F3945E010F2D93
:1003C00010E0C5018C1B9D0B8017910730F489E06C
:1003D0001BDFF50181935F01F4CF8E2DDF91CF916B
:1003E0001F910F91FF90EF90DF90BF90AF909F9083
:1003F0008F907F906F900895EF92FF920F931F93CD
:10040000CF93DF9300D0CDB7DEB7182F7B0167E025
:100410008DE0EDDEF70110838E010F5F1F4F970116
:1004200041E0B7018CE039DF811105C029813A81B3
:100430002031310509F082E00F900F90DF91CF91CC
:100440001F910F91FF90EF900895EF92FF920F93FD
:100450001F93CF93DF9300D0CDB7DEB77C0160E070
:100460008DE0C5DE83E9F701808380E281838E0120
:100470000F5F1F4F970142E0B7018CE00EDF811143
:100480000EC0F70197012C5F3F4F90E041919427F8
:10049000E217F307D9F7F7012481921382E00F9056
:1004A0000F90DF91CF911F910F91FF90EF900895E2
:1004B000DF92EF92FF920F931F93CF93DF93D82E8B
:1004C000E92EF62E8A0164E085E0DBDE60E88AE052
:1004D000AADECD2DDE2DCE018F0D911D7C01CE1516
:1004E000DF0521F0699189E082DEF9CF63E081E0E8
:1004F0007EDECFEF85E088DEC15011F082FFFACFBB
:1005000082E282DEF801808381E27EDEF80181836F
:10051000DF91CF911F910F91FF90EF90DF900895A1
:100520000F931F93CF93DF9300D000D000D0CDB7AF
:10053000DEB780E589831A82AE014D5F5F4F62E0CE
:10054000CE010196B5DF8E010B5F1F4F9E012F5F1D
:100550003F4F44E0B9018CE0A0DE26960FB6F89438
:10056000DEBF0FBECDBFDF91CF911F910F910895D8
:10057000CF93DF9300D000D0CDB7DEB716BC85B3E4
:10058000836085BB80916E00816080936E0081E006
:1005900085BD1092B2001092B0001092B10010927E
:1005A000700084B985B98AE187B912E018B9449A14
:1005B0002FEF89E698E1215080409040E1F700C09C
:1005C00000009EE088E10FB6F894A8958093600043
:1005D0000FBE90936000A895529A5A9880E190E0DF
:1005E000A0E0B0E089839A83AB83BC8389819A8140
:1005F000AB81BC81892F9A2FAB2FBB278093C5007D
:1006000089819A81AB81BC818093C40088E9809301
:10061000C10086E08093C2001092C00080E091E0AB
:10062000909382018093810110925801EFEFF1EED7
:1006300024E0E150F0402040E1F700C00000B7D1D5
:100640007894109235011092360110923701109271
:1006500038018091350190913601A0913701B09118
:1006600038018C599F4FAF4FBF4F809369019093D2
:100670006A01A0936B01B0936C01E0DD10927D01E3
:1006800010921E0110921F018FEF8BBB1093680018
:1006900084E080936C00449888EE93E0909321016D
:1006A0008093200134E1632E31E0732E40E6C42EA6
:1006B00041E0D42E57E1E52E51E0F52E68EEA62E4E
:1006C00063E0B62E7894A89580911E018823D1F31B
:1006D00010921E0180917D01843001F55A9A7F921B
:1006E0006F9274D10DE511E00F900F90512C4801DD
:1006F000F80181918F01D4DCF4018081580EC0167D
:10070000D106A9F7852DCCDC8AE090E072D15A9809
:1007100010927D01B0922101A092200140913501FB
:1007200050913601609137017091380180916901D3
:1007300090916A01A0916B01B0916C014817590723
:100740006A077B0708F44AC0809135019091360111
:10075000A0913701B09138018C599F4FAF4FBF4FD7
:100760008093690190936A01A0936B01B0936C012F
:1007700065DD65E271E086E23FDE80937E0185E221
:1007800091E063DE80937E0181110BC0E6DC5A9A12
:10079000FF92EF921BD105E211E00F900F90512CC8
:1007A0000BC0BEDEFFEF20E782E0F150204080402A
:1007B000E1F700C0000012C04801F80181918F01EB
:1007C0006FDCF4018081580EF1E00A321F07A1F7B7
:1007D000852D66DC8AE090E00CD15A9880911F014B
:1007E000882309F46FCF10921F018091220180FFAE
:1007F00002C0439A01C043988091220181FF02C048
:10080000449A60CF44985ECF1F920F920FB60F921A
:1008100011248F939F93AF93BF9380911A0190916E
:100820001B01A0911C01B0911D010196A11DB11DDC
:1008300080931A0190931B01A0931C01B0931D019A
:1008400080911A0190911B01A0911C01B0911D0192
:10085000CE97A105B105A1F481E080931E018CE63D
:1008600087BDA99A80916E00826080936E0010927D
:100870001A0110921B0110921C0110921D0105C05B
:1008800080916E00816080936E00BF91AF919F91C7
:100890008F910F900FBE0F901F9018951F920F927F
:1008A0000FB60F9211248F939F93AF93BF93EF9343
:1008B000FF9316BC10921A0110921B0110921C019A
:1008C00010921D0181E080931E01EEE6F0E0808130
:1008D0008D7F8083808181608083809135019091BC
:1008E0003601A0913701B09138010196A11DB11DCB
:1008F0008093350190933601A0933701B09338016E
:10090000FF91EF91BF91AF919F918F910F900FBE8B
:100910000F901F9018951F920F920FB60F921124EF
:100920008F9380917D01813099F028F08230C1F061
:100930008330F1F028C0329926C01092B200109294
:10094000B00087E08093B10081E08093700019C00F
:10095000329B19C08091B20080935D0182E011C08A
:10096000329911C08091B20080935E0183E009C08A
:10097000329B09C08091B20080935F011092B10058
:1009800084E080937D018F910F900FBE0F901F9098
:1009900018951F920F920FB60F9211241092B1006A
:1009A00010927D010F900FBE0F901F90189584B18B
:1009B0008C6284B92A9A1CBC1DBC8CB581618CBD2B
:1009C0008DB58DBD8CB580648CBD0895A0E0B0E080
:1009D000EBEEF4E0A6C2AE014B5F5F4FFA0161910E
:1009E0007191AF01809181019091820108D0E2E084
:1009F000B4C26091810170918201E9D10895ABE0A8
:100A0000B0E0E4E0F5E07DC26C017B018A01FC010D
:100A100017821682838181FFBFC1CE0101963C01FE
:100A2000F6019381F70193FD859193FF81917F01F9
:100A3000882309F4ADC1853239F493FD859193FF84
:100A400081917F01853221F4B60190E0C0D1E8CFD9
:100A5000912C212C312CFFE1F315D8F08B3279F059
:100A600038F4803279F08332A1F4232D20611DC047
:100A70008D3261F0803369F4232D216016C0832DFF
:100A80008260382EE32DE4603E2E2AC0F32DF860FC
:100A90001DC037FC2DC020ED280F2A3040F08E32CB
:100AA000B9F436FC75C1232D2064322E19C036FEF0
:100AB00006C08AE0989E200D1124922E11C0EAE013
:100AC0002E9E200D1124222EF32DF0623F2E08C001
:100AD0008C3621F4832D8068382E02C0883641F48C
:100AE000F70193FD859193FF81917F018111B3CF30
:100AF000982F9F7D9554933028F40C5F1F4F9FE3F0
:100B000099830DC0833631F0833771F0833509F056
:100B100055C020C0F801808189830E5F1F4F882453
:100B20008394912C530112C02801F2E04F0E511C06
:100B3000F801A080B18036FE03C0692D70E002C0CC
:100B40006FEF7FEFC50138D14C018201F32DFF77A4
:100B50003F2E15C0280122E0420E511CF801A08052
:100B6000B18036FE03C0692D70E002C06FEF7FEFE9
:100B7000C50117D14C01F32DF0683F2E820133FCE3
:100B800019C0822D90E088169906A0F4B60180E283
:100B900090E01DD12A94F5CFF50137FC859137FE01
:100BA00081915F01B60190E012D121102A9421E0D9
:100BB000821A91088114910479F7E1C0843611F00A
:100BC000893639F5F80137FE07C06081718182816D
:100BD00093810C5F1F4F08C060817181072E000C4C
:100BE000880B990B0E5F1F4FF32DFF763F2E97FF5B
:100BF00009C090958095709561957F4F8F4F9F4F5D
:100C0000F0683F2E2AE030E0A3011DD1882E86181F
:100C100044C0853731F4232D2F7EB22E2AE030E0F8
:100C200025C0932D997FB92E8F36C1F018F48835E1
:100C300079F0AEC0803719F0883721F0A9C0E92FCC
:100C4000E061BE2EB4FE0DC0FB2DF460BF2E09C0C6
:100C500034FE0AC0292F2660B22E06C028E030E0FC
:100C600005C020E130E002C020E132E0F801B7FE2B
:100C700007C060817181828193810C5F1F4F06C024
:100C80006081718180E090E00E5F1F4FA301DBD097
:100C9000882E8618FB2DFF773F2E36FE0DC0232DA4
:100CA0002E7FA22E891458F434FE0BC032FC09C0EA
:100CB000832D8E7EA82E05C0B82CA32C03C0B82C83
:100CC00001C0B92CA4FE0FC0FE01E80DF11D80810A
:100CD000803321F49A2D997EA92E09C0A2FE06C068
:100CE000B394B39404C08A2D867809F0B394A3FC1E
:100CF00010C0A0FE06C0B21480F4280C922C9B18E1
:100D00000DC0B21458F4B60180E290E060D0B39404
:100D1000F8CFB21418F42B1802C0982C212CA4FE82
:100D20000FC0B60180E390E052D0A2FE16C0A1FC35
:100D300003C088E790E002C088E590E0B6010CC0EF
:100D40008A2D867851F0A1FE02C08BE201C080E2BC
:100D5000A7FC8DE2B60190E03AD0891430F4B601D8
:100D600080E390E034D09A94F8CF8A94F301E80DB0
:100D7000F11D8081B60190E02AD08110F6CF2220AB
:100D800009F44ECEB60180E290E021D02A94F7CF4C
:100D9000F6018681978102C08FEF9FEF2B96E2E1EB
:100DA000CCC0FC010590615070400110D8F78095CF
:100DB00090958E0F9F1F0895FC0161507040019027
:100DC0000110D8F7809590958E0F9F1F08950F936F
:100DD0001F93CF93DF93FB01238121FD03C08FEF8E
:100DE0009FEF2CC022FF16C0468157812481358198
:100DF0004217530744F4A081B1819D012F5F3F4FFB
:100E0000318320838C93268137812F5F3F4F378337
:100E1000268314C08B01EC01FB010084F185E02DD9
:100E20000995892BE1F6D80116968D919C9117971B
:100E3000019617969C938E931697CE01DF91CF91D2
:100E40001F910F910895FA01AA27283051F12031FE
:100E500081F1E8946F936E7F6E5F7F4F8F4F9F4F4E
:100E6000AF4FB1E03ED0B4E03CD0670F781F891F90
:100E70009A1FA11D680F791F8A1F911DA11D6A0F5E
:100E8000711D811D911DA11D20D009F468943F9111
:100E90002AE0269F11243019305D3193DEF6CF0110
:100EA0000895462F4770405D4193B3E00FD0C9F7D6
:100EB000F6CF462F4F70405D4A3318F0495D31FD43
:100EC0004052419302D0A9F7EACFB4E0A695979596
:100ED000879577956795BA95C9F70097610571056C
:100EE00008959B01AC010A2E0694579547953795B6
:100EF0002795BA95C9F7620F731F841F951FA01D10
:100F000008952F923F924F925F926F927F928F92AD
:100F10009F92AF92BF92CF92DF92EF92FF920F9388
:100F20001F93CF93DF93CDB7DEB7CA1BDB0B0FB692
:100F3000F894DEBF0FBECDBF09942A88398848884F
:100F40005F846E847D848C849B84AA84B984C884E5
:100F5000DF80EE80FD800C811B81AA81B981CE0FDC
:100F6000D11D0FB6F894DEBF0FBECDBFED010895C1
:040F7000F894FFCF23
:100F740000000002000000003600000000004C45A4
:0A0F840044780D0A4952005246005D
:00000001FF
